{
  "contractName": "Calculator",
  "abi": [
    {
      "constant": false,
      "inputs": [
        {
          "name": "a",
          "type": "uint256"
        },
        {
          "name": "b",
          "type": "uint256"
        }
      ],
      "name": "add",
      "outputs": [],
      "payable": false,
      "stateMutability": "nonpayable",
      "type": "function"
    },
    {
      "constant": false,
      "inputs": [
        {
          "name": "a",
          "type": "uint256"
        },
        {
          "name": "b",
          "type": "uint256"
        }
      ],
      "name": "sub",
      "outputs": [],
      "payable": false,
      "stateMutability": "nonpayable",
      "type": "function"
    },
    {
      "constant": false,
      "inputs": [
        {
          "name": "a",
          "type": "uint256"
        },
        {
          "name": "b",
          "type": "uint256"
        }
      ],
      "name": "mul",
      "outputs": [],
      "payable": false,
      "stateMutability": "nonpayable",
      "type": "function"
    },
    {
      "constant": false,
      "inputs": [
        {
          "name": "a",
          "type": "uint256"
        },
        {
          "name": "b",
          "type": "uint256"
        }
      ],
      "name": "div",
      "outputs": [],
      "payable": false,
      "stateMutability": "nonpayable",
      "type": "function"
    },
    {
      "constant": true,
      "inputs": [],
      "name": "getResult",
      "outputs": [
        {
          "name": "x",
          "type": "uint256"
        }
      ],
      "payable": false,
      "stateMutability": "view",
      "type": "function"
    }
  ],
  "bytecode": "0x608060405234801561001057600080fd5b50610289806100206000396000f30060806040526004361061006d576000357c0100000000000000000000000000000000000000000000000000000000900463ffffffff168063771602f714610072578063a391c15b146100a9578063b67d77c5146100e0578063c8a4ac9c14610117578063de2927891461014e575b600080fd5b34801561007e57600080fd5b506100a76004803603810190808035906020019092919080359060200190929190505050610179565b005b3480156100b557600080fd5b506100de6004803603810190808035906020019092919080359060200190929190505050610186565b005b3480156100ec57600080fd5b50610115600480360381019080803590602001909291908035906020019092919050505061023a565b005b34801561012357600080fd5b5061014c6004803603810190808035906020019092919080359060200190929190505050610247565b005b34801561015a57600080fd5b50610163610254565b6040518082815260200191505060405180910390f35b8082016000819055505050565b600081111515610224576040517f08c379a000000000000000000000000000000000000000000000000000000000815260040180806020018281038252602c8152602001807f546865207365636f6e6420706172616d657465722073686f756c64206265206c81526020017f6172676572207468616e2030000000000000000000000000000000000000000081525060400191505060405180910390fd5b808281151561022f57fe5b046000819055505050565b8082036000819055505050565b8082026000819055505050565b600080549050905600a165627a7a72305820d0b8b30b937e9348efe6dd598adf139a3fd96ea33caf762afb19f6e478d1e5f50029",
  "source": "pragma solidity ^0.4.24;\n\ncontract Calculator {\n    uint c;\n\n    function add(uint a, uint b) public {\n        c = a + b;\n    }\n\n    function sub(uint a, uint b) public {\n        c = a - b;\n    }\n\n    function mul(uint a, uint b) public {\n        c = a * b;\n    }\n\n    function div(uint a, uint b) public {\n        require(b > 0, \"The second parameter should be larger than 0\");\n\n        c = a / b;\n    }\n\n    function getResult() public view returns (uint x) {\n        return c;\n    }\n}\n",
  "sourcePath": "/Users/miljantekic/Code/Tenderly/tenderly-examples/simple-solidity-calculator/contracts/Calculator.sol",
  "compiler": {
    "name": "solc",
    "version": "0.4.24+commit.e67f0147.Emscripten.clang"
  },
  "schemaVersion": "2.0.1",
  "updatedAt": "2018-12-05T07:10:06.598Z"
}