{
  "contractName": "Calculator",
  "abi": [
    {
      "constant": false,
      "inputs": [
        {
          "name": "a",
          "type": "uint256"
        },
        {
          "name": "b",
          "type": "uint256"
        }
      ],
      "name": "add",
      "outputs": [],
      "payable": false,
      "stateMutability": "nonpayable",
      "type": "function"
    },
    {
      "constant": false,
      "inputs": [
        {
          "name": "a",
          "type": "uint256"
        },
        {
          "name": "b",
          "type": "uint256"
        }
      ],
      "name": "sub",
      "outputs": [],
      "payable": false,
      "stateMutability": "nonpayable",
      "type": "function"
    },
    {
      "constant": false,
      "inputs": [
        {
          "name": "a",
          "type": "uint256"
        },
        {
          "name": "b",
          "type": "uint256"
        }
      ],
      "name": "mul",
      "outputs": [],
      "payable": false,
      "stateMutability": "nonpayable",
      "type": "function"
    },
    {
      "constant": false,
      "inputs": [
        {
          "name": "a",
          "type": "uint256"
        },
        {
          "name": "b",
          "type": "uint256"
        }
      ],
      "name": "div",
      "outputs": [],
      "payable": false,
      "stateMutability": "nonpayable",
      "type": "function"
    },
    {
      "constant": true,
      "inputs": [],
      "name": "getResult",
      "outputs": [
        {
          "name": "x",
          "type": "uint256"
        }
      ],
      "payable": false,
      "stateMutability": "view",
      "type": "function"
    }
  ],
  "bytecode": "0x608060405234801561001057600080fd5b506101eb806100206000396000f30060806040526004361061006d576000357c0100000000000000000000000000000000000000000000000000000000900463ffffffff168063771602f714610072578063a391c15b146100a9578063b67d77c5146100e0578063c8a4ac9c14610117578063de2927891461014e575b600080fd5b34801561007e57600080fd5b506100a76004803603810190808035906020019092919080359060200190929190505050610179565b005b3480156100b557600080fd5b506100de6004803603810190808035906020019092919080359060200190929190505050610186565b005b3480156100ec57600080fd5b50610115600480360381019080803590602001909291908035906020019092919050505061019c565b005b34801561012357600080fd5b5061014c60048036038101908080359060200190929190803590602001909291905050506101a9565b005b34801561015a57600080fd5b506101636101b6565b6040518082815260200191505060405180910390f35b8082016000819055505050565b808281151561019157fe5b046000819055505050565b8082036000819055505050565b8082026000819055505050565b600080549050905600a165627a7a72305820c15a0b756476841fd7f2f269ff890993f1438cffd55ee9145a3dc1192f55ad520029",
  "source": "pragma solidity ^0.4.24;\n\ncontract Calculator {\n    uint c;\n\n    function add(uint a, uint b) public {\n        c = a + b;\n    }\n\n    function sub(uint a, uint b) public {\n        c = a - b;\n    }\n\n    function mul(uint a, uint b) public {\n        c = a * b;\n    }\n\n    function div(uint a, uint b) public {\n        // require(b > 0, \"The second parameter should be larger than 0\");\n\n        c = a / b;\n    }\n\n    function getResult() public view returns (uint x) {\n        return c;\n    }\n}",
  "sourcePath": "/Users/bogdanhabic/Development/Tenderly/tenderly-examples/simple-solidity-calculator/contracts/Calculator.sol",
  "compiler": {
    "name": "solc",
    "version": "0.4.24+commit.e67f0147.Emscripten.clang"
  },
  "schemaVersion": "2.0.1",
  "updatedAt": "2018-11-26T18:31:46.185Z"
}