{
  "_format": "hh-sol-artifact-1",
  "contractName": "MultiSigWallet",
  "sourceName": "contracts/MultiSigWallet.sol",
  "abi": [
    {
      "inputs": [
        {
          "internalType": "address[]",
          "name": "_owners",
          "type": "address[]"
        },
        {
          "internalType": "uint256",
          "name": "_numConfirmationsRequired",
          "type": "uint256"
        }
      ],
      "stateMutability": "nonpayable",
      "type": "constructor"
    },
    {
      "anonymous": false,
      "inputs": [
        {
          "indexed": true,
          "internalType": "address",
          "name": "owner",
          "type": "address"
        },
        {
          "indexed": true,
          "internalType": "uint256",
          "name": "txIndex",
          "type": "uint256"
        }
      ],
      "name": "ConfirmationRevocation",
      "type": "event"
    },
    {
      "anonymous": false,
      "inputs": [
        {
          "indexed": true,
          "internalType": "address",
          "name": "sender",
          "type": "address"
        },
        {
          "indexed": false,
          "internalType": "uint256",
          "name": "amount",
          "type": "uint256"
        },
        {
          "indexed": false,
          "internalType": "uint256",
          "name": "balance",
          "type": "uint256"
        }
      ],
      "name": "Deposit",
      "type": "event"
    },
    {
      "anonymous": false,
      "inputs": [
        {
          "indexed": true,
          "internalType": "address",
          "name": "owner",
          "type": "address"
        },
        {
          "indexed": true,
          "internalType": "uint256",
          "name": "txIndex",
          "type": "uint256"
        }
      ],
      "name": "ExecuteTransaction",
      "type": "event"
    },
    {
      "anonymous": false,
      "inputs": [
        {
          "indexed": false,
          "internalType": "uint256",
          "name": "x",
          "type": "uint256"
        }
      ],
      "name": "Test",
      "type": "event"
    },
    {
      "anonymous": false,
      "inputs": [
        {
          "indexed": true,
          "internalType": "address",
          "name": "owner",
          "type": "address"
        },
        {
          "indexed": true,
          "internalType": "uint256",
          "name": "txIndex",
          "type": "uint256"
        }
      ],
      "name": "TxConfirmation",
      "type": "event"
    },
    {
      "anonymous": false,
      "inputs": [
        {
          "indexed": true,
          "internalType": "address",
          "name": "owner",
          "type": "address"
        },
        {
          "indexed": true,
          "internalType": "uint256",
          "name": "txIndex",
          "type": "uint256"
        },
        {
          "indexed": true,
          "internalType": "address",
          "name": "to",
          "type": "address"
        },
        {
          "indexed": false,
          "internalType": "uint256",
          "name": "value",
          "type": "uint256"
        },
        {
          "indexed": false,
          "internalType": "bytes",
          "name": "data",
          "type": "bytes"
        }
      ],
      "name": "TxSubmission",
      "type": "event"
    },
    {
      "inputs": [
        {
          "internalType": "uint256",
          "name": "_txIndex",
          "type": "uint256"
        }
      ],
      "name": "confirmTransaction",
      "outputs": [],
      "stateMutability": "nonpayable",
      "type": "function"
    },
    {
      "inputs": [
        {
          "internalType": "uint256",
          "name": "_txIndex",
          "type": "uint256"
        }
      ],
      "name": "executeTransaction",
      "outputs": [],
      "stateMutability": "nonpayable",
      "type": "function"
    },
    {
      "inputs": [],
      "name": "getOwners",
      "outputs": [
        {
          "internalType": "address[]",
          "name": "",
          "type": "address[]"
        }
      ],
      "stateMutability": "view",
      "type": "function"
    },
    {
      "inputs": [
        {
          "internalType": "uint256",
          "name": "_txIndex",
          "type": "uint256"
        }
      ],
      "name": "getTransaction",
      "outputs": [
        {
          "internalType": "address",
          "name": "to",
          "type": "address"
        },
        {
          "internalType": "uint256",
          "name": "value",
          "type": "uint256"
        },
        {
          "internalType": "bytes",
          "name": "data",
          "type": "bytes"
        },
        {
          "internalType": "bool",
          "name": "executed",
          "type": "bool"
        },
        {
          "internalType": "uint256",
          "name": "numConfirmations",
          "type": "uint256"
        }
      ],
      "stateMutability": "view",
      "type": "function"
    },
    {
      "inputs": [],
      "name": "getTransactionCount",
      "outputs": [
        {
          "internalType": "uint256",
          "name": "",
          "type": "uint256"
        }
      ],
      "stateMutability": "view",
      "type": "function"
    },
    {
      "inputs": [
        {
          "internalType": "uint256",
          "name": "",
          "type": "uint256"
        },
        {
          "internalType": "address",
          "name": "",
          "type": "address"
        }
      ],
      "name": "isConfirmed",
      "outputs": [
        {
          "internalType": "bool",
          "name": "",
          "type": "bool"
        }
      ],
      "stateMutability": "view",
      "type": "function"
    },
    {
      "inputs": [
        {
          "internalType": "address",
          "name": "",
          "type": "address"
        }
      ],
      "name": "isOwner",
      "outputs": [
        {
          "internalType": "bool",
          "name": "",
          "type": "bool"
        }
      ],
      "stateMutability": "view",
      "type": "function"
    },
    {
      "inputs": [],
      "name": "numConfirmationsRequired",
      "outputs": [
        {
          "internalType": "uint256",
          "name": "",
          "type": "uint256"
        }
      ],
      "stateMutability": "view",
      "type": "function"
    },
    {
      "inputs": [
        {
          "internalType": "uint256",
          "name": "",
          "type": "uint256"
        }
      ],
      "name": "owners",
      "outputs": [
        {
          "internalType": "address",
          "name": "",
          "type": "address"
        }
      ],
      "stateMutability": "view",
      "type": "function"
    },
    {
      "inputs": [
        {
          "internalType": "uint256",
          "name": "_txIndex",
          "type": "uint256"
        }
      ],
      "name": "revokeConfirmation",
      "outputs": [],
      "stateMutability": "nonpayable",
      "type": "function"
    },
    {
      "inputs": [
        {
          "internalType": "address",
          "name": "_to",
          "type": "address"
        },
        {
          "internalType": "uint256",
          "name": "_value",
          "type": "uint256"
        },
        {
          "internalType": "bytes",
          "name": "_data",
          "type": "bytes"
        }
      ],
      "name": "submitTransaction",
      "outputs": [],
      "stateMutability": "nonpayable",
      "type": "function"
    },
    {
      "inputs": [
        {
          "internalType": "uint256",
          "name": "",
          "type": "uint256"
        }
      ],
      "name": "transactions",
      "outputs": [
        {
          "internalType": "address",
          "name": "to",
          "type": "address"
        },
        {
          "internalType": "uint256",
          "name": "value",
          "type": "uint256"
        },
        {
          "internalType": "bytes",
          "name": "data",
          "type": "bytes"
        },
        {
          "internalType": "bool",
          "name": "executed",
          "type": "bool"
        },
        {
          "internalType": "uint256",
          "name": "numConfirmations",
          "type": "uint256"
        }
      ],
      "stateMutability": "view",
      "type": "function"
    },
    {
      "stateMutability": "payable",
      "type": "receive"
    }
  ],
  "bytecode": "0x60806040523480156200001157600080fd5b506040516200273b3803806200273b833981810160405281019062000037919062000547565b7f63a242a632efe33c0e210e04e4173612a17efa4f16aa4890bc7e46caece80de0600a604051620000699190620005fa565b60405180910390a16000825111620000b8576040517f08c379a0000000000000000000000000000000000000000000000000000000008152600401620000af9062000678565b60405180910390fd5b600081118015620000ca575081518111155b6200010c576040517f08c379a0000000000000000000000000000000000000000000000000000000008152600401620001039062000710565b60405180910390fd5b60005b82518110156200030e57600083828151811062000131576200013062000732565b5b60200260200101519050600073ffffffffffffffffffffffffffffffffffffffff168173ffffffffffffffffffffffffffffffffffffffff1603620001ad576040517f08c379a0000000000000000000000000000000000000000000000000000000008152600401620001a490620007b1565b60405180910390fd5b600160008273ffffffffffffffffffffffffffffffffffffffff1673ffffffffffffffffffffffffffffffffffffffff16815260200190815260200160002060009054906101000a900460ff16156200023d576040517f08c379a0000000000000000000000000000000000000000000000000000000008152600401620002349062000823565b60405180910390fd5b60018060008373ffffffffffffffffffffffffffffffffffffffff1673ffffffffffffffffffffffffffffffffffffffff16815260200190815260200160002060006101000a81548160ff0219169083151502179055506000819080600181540180825580915050600190039060005260206000200160009091909190916101000a81548173ffffffffffffffffffffffffffffffffffffffff021916908373ffffffffffffffffffffffffffffffffffffffff160217905550508080620003059062000874565b9150506200010f565b50806002819055505050620008c1565b6000604051905090565b600080fd5b600080fd5b600080fd5b6000601f19601f8301169050919050565b7f4e487b7100000000000000000000000000000000000000000000000000000000600052604160045260246000fd5b620003828262000337565b810181811067ffffffffffffffff82111715620003a457620003a362000348565b5b80604052505050565b6000620003b96200031e565b9050620003c7828262000377565b919050565b600067ffffffffffffffff821115620003ea57620003e962000348565b5b602082029050602081019050919050565b600080fd5b600073ffffffffffffffffffffffffffffffffffffffff82169050919050565b60006200042d8262000400565b9050919050565b6200043f8162000420565b81146200044b57600080fd5b50565b6000815190506200045f8162000434565b92915050565b60006200047c6200047684620003cc565b620003ad565b90508083825260208201905060208402830185811115620004a257620004a1620003fb565b5b835b81811015620004cf5780620004ba88826200044e565b845260208401935050602081019050620004a4565b5050509392505050565b600082601f830112620004f157620004f062000332565b5b81516200050384826020860162000465565b91505092915050565b6000819050919050565b62000521816200050c565b81146200052d57600080fd5b50565b600081519050620005418162000516565b92915050565b6000806040838503121562000561576200056062000328565b5b600083015167ffffffffffffffff8111156200058257620005816200032d565b5b6200059085828601620004d9565b9250506020620005a38582860162000530565b9150509250929050565b6000819050919050565b6000819050919050565b6000620005e2620005dc620005d684620005ad565b620005b7565b6200050c565b9050919050565b620005f481620005c1565b82525050565b6000602082019050620006116000830184620005e9565b92915050565b600082825260208201905092915050565b7f6f776e6572732072657175697265640000000000000000000000000000000000600082015250565b600062000660600f8362000617565b91506200066d8262000628565b602082019050919050565b60006020820190508181036000830152620006938162000651565b9050919050565b7f696e76616c6964206e756d626572206f6620726571756972656420636f6e666960008201527f726d6174696f6e73000000000000000000000000000000000000000000000000602082015250565b6000620006f860288362000617565b915062000705826200069a565b604082019050919050565b600060208201905081810360008301526200072b81620006e9565b9050919050565b7f4e487b7100000000000000000000000000000000000000000000000000000000600052603260045260246000fd5b7f696e76616c6964206f776e657200000000000000000000000000000000000000600082015250565b600062000799600d8362000617565b9150620007a68262000761565b602082019050919050565b60006020820190508181036000830152620007cc816200078a565b9050919050565b7f6f776e6572206e6f7420756e6971756500000000000000000000000000000000600082015250565b60006200080b60108362000617565b91506200081882620007d3565b602082019050919050565b600060208201905081810360008301526200083e81620007fc565b9050919050565b7f4e487b7100000000000000000000000000000000000000000000000000000000600052601160045260246000fd5b600062000881826200050c565b91507fffffffffffffffffffffffffffffffffffffffffffffffffffffffffffffffff8203620008b657620008b562000845565b5b600182019050919050565b611e6a80620008d16000396000f3fe6080604052600436106100ab5760003560e01c80639ace38c2116100645780639ace38c214610253578063a0e67e2b14610294578063c01a8c84146102bf578063c6427474146102e8578063d0549b8514610311578063ee22610b1461033c57610102565b8063025e7c271461010757806320ea8d86146101445780632e7700f01461016d5780632f54bf6e1461019857806333ea3dc8146101d557806380f59a651461021657610102565b36610102573373ffffffffffffffffffffffffffffffffffffffff167f90890809c654f11d6e72a28fa60149770a0d11ec6c92319d6ceb2bb0a4ea1a1534476040516100f892919061116c565b60405180910390a2005b600080fd5b34801561011357600080fd5b5061012e600480360381019061012991906111d5565b610365565b60405161013b9190611243565b60405180910390f35b34801561015057600080fd5b5061016b600480360381019061016691906111d5565b6103a4565b005b34801561017957600080fd5b5061018261067e565b60405161018f919061125e565b60405180910390f35b3480156101a457600080fd5b506101bf60048036038101906101ba91906112a5565b61068b565b6040516101cc91906112ed565b60405180910390f35b3480156101e157600080fd5b506101fc60048036038101906101f791906111d5565b6106ab565b60405161020d959493929190611398565b60405180910390f35b34801561022257600080fd5b5061023d600480360381019061023891906113f2565b6107be565b60405161024a91906112ed565b60405180910390f35b34801561025f57600080fd5b5061027a600480360381019061027591906111d5565b6107ed565b60405161028b959493929190611398565b60405180910390f35b3480156102a057600080fd5b506102a96108e8565b6040516102b691906114f0565b60405180910390f35b3480156102cb57600080fd5b506102e660048036038101906102e191906111d5565b610976565b005b3480156102f457600080fd5b5061030f600480360381019061030a9190611647565b610c53565b005b34801561031d57600080fd5b50610326610e56565b604051610333919061125e565b60405180910390f35b34801561034857600080fd5b50610363600480360381019061035e91906111d5565b610e5c565b005b6000818154811061037557600080fd5b906000526020600020016000915054906101000a900473ffffffffffffffffffffffffffffffffffffffff1681565b600160003373ffffffffffffffffffffffffffffffffffffffff1673ffffffffffffffffffffffffffffffffffffffff16815260200190815260200160002060009054906101000a900460ff16610430576040517f08c379a000000000000000000000000000000000000000000000000000000000815260040161042790611713565b60405180910390fd5b806004805490508110610478576040517f08c379a000000000000000000000000000000000000000000000000000000000815260040161046f9061177f565b60405180910390fd5b816004818154811061048d5761048c61179f565b5b906000526020600020906005020160030160009054906101000a900460ff16156104ec576040517f08c379a00000000000000000000000000000000000000000000000000000000081526004016104e39061181a565b60405180910390fd5b6000600484815481106105025761050161179f565b5b906000526020600020906005020190506003600085815260200190815260200160002060003373ffffffffffffffffffffffffffffffffffffffff1673ffffffffffffffffffffffffffffffffffffffff16815260200190815260200160002060009054906101000a900460ff166105af576040517f08c379a00000000000000000000000000000000000000000000000000000000081526004016105a690611886565b60405180910390fd5b60018160040160008282546105c491906118d5565b9250508190555060006003600086815260200190815260200160002060003373ffffffffffffffffffffffffffffffffffffffff1673ffffffffffffffffffffffffffffffffffffffff16815260200190815260200160002060006101000a81548160ff021916908315150217905550833373ffffffffffffffffffffffffffffffffffffffff167fc423fd18c78c483f167229efa90b29abe30eed1425ab9cb40441f6555650eca860405160405180910390a350505050565b6000600480549050905090565b60016020528060005260406000206000915054906101000a900460ff1681565b60008060606000806000600487815481106106c9576106c861179f565b5b906000526020600020906005020190508060000160009054906101000a900473ffffffffffffffffffffffffffffffffffffffff168160010154826002018360030160009054906101000a900460ff16846004015482805461072a90611938565b80601f016020809104026020016040519081016040528092919081815260200182805461075690611938565b80156107a35780601f10610778576101008083540402835291602001916107a3565b820191906000526020600020905b81548152906001019060200180831161078657829003601f168201915b50505050509250955095509550955095505091939590929450565b60036020528160005260406000206020528060005260406000206000915091509054906101000a900460ff1681565b600481815481106107fd57600080fd5b90600052602060002090600502016000915090508060000160009054906101000a900473ffffffffffffffffffffffffffffffffffffffff169080600101549080600201805461084c90611938565b80601f016020809104026020016040519081016040528092919081815260200182805461087890611938565b80156108c55780601f1061089a576101008083540402835291602001916108c5565b820191906000526020600020905b8154815290600101906020018083116108a857829003601f168201915b5050505050908060030160009054906101000a900460ff16908060040154905085565b6060600080548060200260200160405190810160405280929190818152602001828054801561096c57602002820191906000526020600020905b8160009054906101000a900473ffffffffffffffffffffffffffffffffffffffff1673ffffffffffffffffffffffffffffffffffffffff1681526020019060010190808311610922575b5050505050905090565b600160003373ffffffffffffffffffffffffffffffffffffffff1673ffffffffffffffffffffffffffffffffffffffff16815260200190815260200160002060009054906101000a900460ff16610a02576040517f08c379a00000000000000000000000000000000000000000000000000000000081526004016109f990611713565b60405180910390fd5b806004805490508110610a4a576040517f08c379a0000000000000000000000000000000000000000000000000000000008152600401610a419061177f565b60405180910390fd5b8160048181548110610a5f57610a5e61179f565b5b906000526020600020906005020160030160009054906101000a900460ff1615610abe576040517f08c379a0000000000000000000000000000000000000000000000000000000008152600401610ab59061181a565b60405180910390fd5b826003600082815260200190815260200160002060003373ffffffffffffffffffffffffffffffffffffffff1673ffffffffffffffffffffffffffffffffffffffff16815260200190815260200160002060009054906101000a900460ff1615610b5d576040517f08c379a0000000000000000000000000000000000000000000000000000000008152600401610b54906119b5565b60405180910390fd5b600060048581548110610b7357610b7261179f565b5b906000526020600020906005020190506001816004016000828254610b9891906119d5565b9250508190555060016003600087815260200190815260200160002060003373ffffffffffffffffffffffffffffffffffffffff1673ffffffffffffffffffffffffffffffffffffffff16815260200190815260200160002060006101000a81548160ff021916908315150217905550843373ffffffffffffffffffffffffffffffffffffffff167f52a3954c699324c8e90e7e2f7cb9f57cd61af1902197bafcc5085b6c2a57b82360405160405180910390a35050505050565b600160003373ffffffffffffffffffffffffffffffffffffffff1673ffffffffffffffffffffffffffffffffffffffff16815260200190815260200160002060009054906101000a900460ff16610cdf576040517f08c379a0000000000000000000000000000000000000000000000000000000008152600401610cd690611713565b60405180910390fd5b6000600480549050905060046040518060a001604052808673ffffffffffffffffffffffffffffffffffffffff1681526020018581526020018481526020016000151581526020016000815250908060018154018082558091505060019003906000526020600020906005020160009091909190915060008201518160000160006101000a81548173ffffffffffffffffffffffffffffffffffffffff021916908373ffffffffffffffffffffffffffffffffffffffff160217905550602082015181600101556040820151816002019081610dbb9190611bb5565b5060608201518160030160006101000a81548160ff0219169083151502179055506080820151816004015550508373ffffffffffffffffffffffffffffffffffffffff16813373ffffffffffffffffffffffffffffffffffffffff167f52e5c631bb2fd786d6b1c26f68548e07c61d087bf325770dd88d072cf0a5e8b08686604051610e48929190611c87565b60405180910390a450505050565b60025481565b600160003373ffffffffffffffffffffffffffffffffffffffff1673ffffffffffffffffffffffffffffffffffffffff16815260200190815260200160002060009054906101000a900460ff16610ee8576040517f08c379a0000000000000000000000000000000000000000000000000000000008152600401610edf90611713565b60405180910390fd5b806004805490508110610f30576040517f08c379a0000000000000000000000000000000000000000000000000000000008152600401610f279061177f565b60405180910390fd5b8160048181548110610f4557610f4461179f565b5b906000526020600020906005020160030160009054906101000a900460ff1615610fa4576040517f08c379a0000000000000000000000000000000000000000000000000000000008152600401610f9b9061181a565b60405180910390fd5b600060048481548110610fba57610fb961179f565b5b90600052602060002090600502019050600254816004015411611012576040517f08c379a000000000000000000000000000000000000000000000000000000000815260040161100990611d03565b60405180910390fd5b60018160030160006101000a81548160ff02191690831515021790555060008160000160009054906101000a900473ffffffffffffffffffffffffffffffffffffffff1673ffffffffffffffffffffffffffffffffffffffff168260010154836002016040516110829190611db1565b60006040518083038185875af1925050503d80600081146110bf576040519150601f19603f3d011682016040523d82523d6000602084013e6110c4565b606091505b5050905080611108576040517f08c379a00000000000000000000000000000000000000000000000000000000081526004016110ff90611e14565b60405180910390fd5b843373ffffffffffffffffffffffffffffffffffffffff167f5445f318f4f5fcfb66592e68e0cc5822aa15664039bd5f0ffde24c5a8142b1ac60405160405180910390a35050505050565b6000819050919050565b61116681611153565b82525050565b6000604082019050611181600083018561115d565b61118e602083018461115d565b9392505050565b6000604051905090565b600080fd5b600080fd5b6111b281611153565b81146111bd57600080fd5b50565b6000813590506111cf816111a9565b92915050565b6000602082840312156111eb576111ea61119f565b5b60006111f9848285016111c0565b91505092915050565b600073ffffffffffffffffffffffffffffffffffffffff82169050919050565b600061122d82611202565b9050919050565b61123d81611222565b82525050565b60006020820190506112586000830184611234565b92915050565b6000602082019050611273600083018461115d565b92915050565b61128281611222565b811461128d57600080fd5b50565b60008135905061129f81611279565b92915050565b6000602082840312156112bb576112ba61119f565b5b60006112c984828501611290565b91505092915050565b60008115159050919050565b6112e7816112d2565b82525050565b600060208201905061130260008301846112de565b92915050565b600081519050919050565b600082825260208201905092915050565b60005b83811015611342578082015181840152602081019050611327565b60008484015250505050565b6000601f19601f8301169050919050565b600061136a82611308565b6113748185611313565b9350611384818560208601611324565b61138d8161134e565b840191505092915050565b600060a0820190506113ad6000830188611234565b6113ba602083018761115d565b81810360408301526113cc818661135f565b90506113db60608301856112de565b6113e8608083018461115d565b9695505050505050565b600080604083850312156114095761140861119f565b5b6000611417858286016111c0565b925050602061142885828601611290565b9150509250929050565b600081519050919050565b600082825260208201905092915050565b6000819050602082019050919050565b61146781611222565b82525050565b6000611479838361145e565b60208301905092915050565b6000602082019050919050565b600061149d82611432565b6114a7818561143d565b93506114b28361144e565b8060005b838110156114e35781516114ca888261146d565b97506114d583611485565b9250506001810190506114b6565b5085935050505092915050565b6000602082019050818103600083015261150a8184611492565b905092915050565b600080fd5b600080fd5b7f4e487b7100000000000000000000000000000000000000000000000000000000600052604160045260246000fd5b6115548261134e565b810181811067ffffffffffffffff821117156115735761157261151c565b5b80604052505050565b6000611586611195565b9050611592828261154b565b919050565b600067ffffffffffffffff8211156115b2576115b161151c565b5b6115bb8261134e565b9050602081019050919050565b82818337600083830152505050565b60006115ea6115e584611597565b61157c565b90508281526020810184848401111561160657611605611517565b5b6116118482856115c8565b509392505050565b600082601f83011261162e5761162d611512565b5b813561163e8482602086016115d7565b91505092915050565b6000806000606084860312156116605761165f61119f565b5b600061166e86828701611290565b935050602061167f868287016111c0565b925050604084013567ffffffffffffffff8111156116a05761169f6111a4565b5b6116ac86828701611619565b9150509250925092565b600082825260208201905092915050565b7f6e6f74206f776e65720000000000000000000000000000000000000000000000600082015250565b60006116fd6009836116b6565b9150611708826116c7565b602082019050919050565b6000602082019050818103600083015261172c816116f0565b9050919050565b7f747820646f6573206e6f74206578697374000000000000000000000000000000600082015250565b60006117696011836116b6565b915061177482611733565b602082019050919050565b600060208201905081810360008301526117988161175c565b9050919050565b7f4e487b7100000000000000000000000000000000000000000000000000000000600052603260045260246000fd5b7f747820616c726561647920657865637574656400000000000000000000000000600082015250565b60006118046013836116b6565b915061180f826117ce565b602082019050919050565b60006020820190508181036000830152611833816117f7565b9050919050565b7f7478206e6f7420636f6e6669726d656400000000000000000000000000000000600082015250565b60006118706010836116b6565b915061187b8261183a565b602082019050919050565b6000602082019050818103600083015261189f81611863565b9050919050565b7f4e487b7100000000000000000000000000000000000000000000000000000000600052601160045260246000fd5b60006118e082611153565b91506118eb83611153565b9250828203905081811115611903576119026118a6565b5b92915050565b7f4e487b7100000000000000000000000000000000000000000000000000000000600052602260045260246000fd5b6000600282049050600182168061195057607f821691505b60208210810361196357611962611909565b5b50919050565b7f747820616c726561647920636f6e6669726d6564000000000000000000000000600082015250565b600061199f6014836116b6565b91506119aa82611969565b602082019050919050565b600060208201905081810360008301526119ce81611992565b9050919050565b60006119e082611153565b91506119eb83611153565b9250828201905080821115611a0357611a026118a6565b5b92915050565b60008190508160005260206000209050919050565b60006020601f8301049050919050565b600082821b905092915050565b600060088302611a6b7fffffffffffffffffffffffffffffffffffffffffffffffffffffffffffffffff82611a2e565b611a758683611a2e565b95508019841693508086168417925050509392505050565b6000819050919050565b6000611ab2611aad611aa884611153565b611a8d565b611153565b9050919050565b6000819050919050565b611acc83611a97565b611ae0611ad882611ab9565b848454611a3b565b825550505050565b600090565b611af5611ae8565b611b00818484611ac3565b505050565b5b81811015611b2457611b19600082611aed565b600181019050611b06565b5050565b601f821115611b6957611b3a81611a09565b611b4384611a1e565b81016020851015611b52578190505b611b66611b5e85611a1e565b830182611b05565b50505b505050565b600082821c905092915050565b6000611b8c60001984600802611b6e565b1980831691505092915050565b6000611ba58383611b7b565b9150826002028217905092915050565b611bbe82611308565b67ffffffffffffffff811115611bd757611bd661151c565b5b611be18254611938565b611bec828285611b28565b600060209050601f831160018114611c1f5760008415611c0d578287015190505b611c178582611b99565b865550611c7f565b601f198416611c2d86611a09565b60005b82811015611c5557848901518255600182019150602085019450602081019050611c30565b86831015611c725784890151611c6e601f891682611b7b565b8355505b6001600288020188555050505b505050505050565b6000604082019050611c9c600083018561115d565b8181036020830152611cae818461135f565b90509392505050565b7f696e73756666696369656e7420636f6e6669726d6174696f6e73000000000000600082015250565b6000611ced601a836116b6565b9150611cf882611cb7565b602082019050919050565b60006020820190508181036000830152611d1c81611ce0565b9050919050565b600081905092915050565b60008154611d3b81611938565b611d458186611d23565b94506001821660008114611d605760018114611d7557611da8565b60ff1983168652811515820286019350611da8565b611d7e85611a09565b60005b83811015611da057815481890152600182019150602081019050611d81565b838801955050505b50505092915050565b6000611dbd8284611d2e565b915081905092915050565b7f7478206661696c65640000000000000000000000000000000000000000000000600082015250565b6000611dfe6009836116b6565b9150611e0982611dc8565b602082019050919050565b60006020820190508181036000830152611e2d81611df1565b905091905056fea264697066735822122037dfa4073f66c45085df16a31d9761a5129f09c068617b36595c9b54b0806f3a64736f6c63430008110033",
  "linkReferences": {},
  "deployedLinkReferences": {}
}